:100000000C9446000C9458000C9458000C94580022
:100010000C9458000C9458000C9458000C94580000
:100020000C9458000C9458000C9458000C945800F0
:100030000C9458000C9458000C9458000C945800E0
:100040000C9458000C9458000C94E6010C94580041
:100050000C9458000C9458000C9458000C945800C0
:100060000C9458000C9458000C9458000C945800B0
:100070000C9458000C9458000C9458000C945800A0
:100080000C9458000C9458000C94580011241FBE76
:10009000CFEFD0E4DEBFCDBF11E0A0E0B1E001C002
:1000A0001D92A130B107E1F70E946C040C942A055F
:1000B0000C9400002F923F924F925F926F927F922A
:1000C0008F929F92AF92BF92CF92DF92EF92FF9268
:1000D0000F931F93CF93DF93CDB7DEB72C970FB657
:1000E000F894DEBF0FBECDBF80E090E1A0E06C01D0
:1000F0007D011E0125E0220E311C812C912C540122
:1001000083948C0C9D1CAE1CBF1CEBBEF60187912A
:10011000843009F416C1F0F4823009F40BC108F4FC
:10012000D0C0DE011196ABBEF40187918D939FEF95
:10013000891A990AA90AB90AA215B305A1F7A5E077
:10014000CA0ED11CE11CF11C64E0CE0101960E9494
:100150005F02D3CF863009F4DCC008F0ACC0ABBE80
:10016000F401879082E0482E512C612C712C4C0CAC
:100170005D1C6E1C7F1C6BBEF2014790D701C6014F
:100180000396A11DB11DABBFFC012791D701C6018C
:100190000496A11DB11DABBFFC018791512C612CB0
:1001A000712C3201552444247828482A522AD70138
:1001B000C6010596A11DB11DABBFFC01279136E01C
:1001C000832E912CA12CB12C8C0C9D1CAE1CBF1C21
:1001D000ABBEF4018790D701C6010796A11DB11DE2
:1001E000ABBFFC013791D701C6010896A11DB11D17
:1001F000ABBFFC018791912CA12CB12C5401992407
:100200008824B22A882A932AD701C6010996A11DFB
:10021000B11DABBFFC0127912A871986D701C60102
:100220000B96A11DB11D8D839E83AF83B8879AE085
:10023000C90ED11CE11CF11CEBBEF601C790A985CB
:10024000BA85AC296D0185017401A30192016D810C
:100250007E818F8198850E946E02A30192016D813B
:100260007E818F8198850E945403CD80DE80EF804F
:10027000F884C80CD91CEA1CFB1C81113ECF0E94DB
:10028000560280E02C960FB6F894DEBF0FBECDBFAD
:10029000DF91CF911F910F91FF90EF90DF90CF9062
:1002A000BF90AF909F908F907F906F905F904F9096
:1002B0003F902F900895873099F08F3F01F781E0AC
:1002C000E1CF8130E1F632E0C30ED11CE11CF11C1C
:1002D000ABBEF40187910E94FD0181110ECFCFCFFB
:1002E000D701C6010296A11DB11DABBEF401279135
:1002F0002C871B8633E0C30ED11CE11CF11CABBF65
:10030000FC018791AB85BC85A82BCD010E945504CB
:10031000F4CE82E0C80ED11CE11CF11CABBEF4018E
:100320008790882009F4E9CE8EE40E94E0018A9447
:10033000D9F7E3CE0E945602750164018111DDCE2A
:100340009ECFDE011196ABBEF40187918D932FEF06
:10035000821A920AA20AB20AA215B305A1F7D7011E
:10036000C6010596A11DB11D36E0C30ED11CE11CCE
:10037000F11CABBFFC01B79064E0CE0101960E9476
:100380005F028C81B8127BCFB8CE85E085BD10921C
:100390000001EEE6F0E08081816080830895809125
:1003A0000001089590910001981B892F08958111F3
:1003B000FFCF089586B5089596B5981B892F0895A7
:1003C00026B596B5921B9817E0F308951F920F92E9
:1003D0000FB60F9211248F93809100018F5F80934D
:1003E00000018F910F900FBE0F901F9018958EBD3A
:1003F0000DB407FEFDCF8EB50895BF92CF92DF9268
:10040000EF92FF920F931F93CF93DF9300D000D012
:10041000CDB7DEB794B1906B94B92C982F9893E038
:10042000E92EE82290E5E92A82FBBB24B0F820E21D
:10043000F22E8E010B5F1F4F3CEAC32E43E5D42EF4
:1004400087E20E94E0012C9A87E20E94E0012C984A
:1004500083EC0E94E001BDBCECBCC982DA821B8245
:100460001C82FE0131968CEA8EBD0DB407FEFDCFD5
:100470008EB58193E017F10711F08081F5CF8B8164
:10048000833529F01CBCFA94D9F680E001C081E0E4
:100490000F900F900F900F90DF91CF911F910F91C0
:1004A000FF90EF90DF90CF90BF90089584B18F744C
:1004B00084B985B18F7485B91CBC81E00895662329
:1004C00061F0FC0190819EBD0DB407FEFDCF9EB58D
:1004D00091939E2F981B9617A8F308952F923F9201
:1004E0004F925F926F927F928F929F92AF92BF9244
:1004F000CF92DF92EF92FF920F931F93CF93DF93F0
:10050000CDB7DEB72B970FB6F894DEBF0FBECDBFC9
:1005100049015A0127013801E114F10401051105CF
:1005200009F4A9C0960140E050E0288739874A873E
:100530005B873FEF3D83F5E02F2E312C2C0E3D1EC7
:10054000DC01CB0195018401E1E1369527951795F2
:100550000795EA95D1F74D81C42ED12CE12CF12CD1
:100560000C151D052E053F05A1F00D835DE4598393
:100570001A820B831C82FE0131962DE42EBD0DB430
:1005800007FEFDCF2EB52193E215F30511F0208172
:10059000F5CFB501A4014170552766277727242F91
:1005A000220F220F220F206429837501640159E074
:1005B000F694E794D794C7945A95D1F7CE82CA821D
:1005C00075016401F694E794D794C794CF82CB82E7
:1005D000C12CD12C7601C394C80ED91EEA1EFB1E75
:1005E000ABBFFC0167916C838E010F5F1F4FF80159
:1005F0002EBD0DB407FEFDCF8EB58193E215F30538
:1006000011F02081F5CF8FEF881A980AA80AB80A4E
:10061000C501B401288539854A855B850E94DF04C0
:10062000672B682B692B79F021E042165104610495
:10063000710449F081E0481A510861087108D9F045
:10064000D701C6017FCF3CE439834E814A835F8165
:100650005B831C828CE4F8018EBD0DB407FEFDCFD8
:100660008EB581932E163F0611F08081F5CF87E27B
:100670000E94E001DFCF2B960FB6F894DEBF0FBECD
:10068000CDBFDF91CF911F910F91FF90EF90DF9041
:10069000CF90BF90AF909F908F907F906F905F9022
:1006A0004F903F902F9008953F924F925F926F929C
:1006B0007F928F929F92AF92BF92CF92DF92EF92F2
:1006C000FF920F931F93CF93DF9300D000D0CDB74D
:1006D000DEB7E114F1040105110509F475C03324F6
:1006E0003A94A5E0CA2ED12CCC0EDD1EBDE4490102
:1006F0005A01F1E1B694A79497948794FA95D1F7AB
:10070000432C512C612C712C84149504A604B7043D
:1007100099F0382CB9831A828B821C82FE013196A3
:10072000ADE4AEBD0DB407FEFDCFAEB5A193EC15A3
:10073000FD0511F0A081F5CF812C912C54018394FB
:1007400082229322A422B522A82DAA0FAA0FAA0FB3
:10075000A062A98349015A01F9E0B694A79497943D
:100760008794FA95D1F78A8249015A01B694A794E1
:10077000979487948B821C82FE013196AEBD0DB496
:1007800007FEFDCFAEB5A193EC15FD0511F0A081DC
:10079000F5CF412C512C32014394460E571E681E52
:1007A000791E8BBFFB018790EC818E1224C02F5FD6
:1007B0003F4F4F4F5F4F81E0E81AF10801091109DF
:1007C00019F0C301B20193CF81E00F900F900F9009
:1007D0000F90DF91CF911F910F91FF90EF90DF90DD
:1007E000CF90BF90AF909F908F907F906F905F90D1
:1007F0004F903F90089580E0E8CFCF92DF92EF9244
:10080000FF920F931F93CF93DF93C0E0D0E0CC24EF
:10081000CA94DC2C7E01CE010E9401058C01249635
:10082000C70102960E940105809590958017910757
:1008300069F0CC30D10571F7C601DF91CF911F91DE
:100840000F91FF90EF90DF90CF9008958C159D054C
:1008500080F76C01EECF0F931F93CF93DF93EC01E2
:100860008C0100951095BC0180E090E00E94070586
:10087000B80182E090E00E940705BE0184E090E0AC
:100880000E940705B80186E090E00E940705BE01BE
:1008900088E090E00E940705B8018AE090E0DF91CF
:1008A000CF911F910F910C940705CF93DF93D82F11
:1008B000C92F0E94FD038F3F2FEF920751F0009741
:1008C00019F4DF91CF9108950197DF91CF910C94A6
:1008D0002B048D2F9C2FF3CF88E087B980E18AB954
:1008E0008FEE8BB90E94C50178940E94CF01082F2A
:1008F0000E94FD03EC010E94CF01D82E88B18F7EAB
:100900008BB9439A11E0EE24E394F12CCC24C394E8
:10091000112329F14B9B28C08D2D0E94D2018031DB
:1009200030F110E0802F0E94D201893088F30E94BC
:10093000CF01082FFC2498B19F7E2097D1F4FF208F
:10094000D1F080E0982B9BB9E1101AC098B1977F45
:10095000F11018C088E0982B98B91111DBCF4B9992
:10096000E1CF209789F4E12C0E94CF01D82E11E02D
:10097000D9CFE110E6CF80E1982B9BB9EE2031F37F
:10098000439AC6CF80E0E7CF88B18F7E8BB943987A
:100990000E945A00E82E0E94FD03EC0188B18F7E70
:1009A000E1100BC090E1892B8BB9439A0E94CF01D3
:1009B000082F0E94CF01D82EDACF90E0F4CFA1E229
:1009C0001A2EAA1BBB1BFD010DC0AA1FBB1FEE1FC9
:1009D000FF1FA217B307E407F50720F0A21BB30B14
:1009E000E40BF50B661F771F881F991F1A9469F790
:1009F00060957095809590959B01AC01BD01CF01EC
:100A00000895A8E1B0E042E050E00C940E050E9489
:100A10001C05272F0C941D05DC01CB01FC01F99965
:100A2000FECF06C0F2BDE1BDF89A319600B40D923A
:100A300041505040B8F70895262FF999FECF1FBABC
:100A400092BD81BD20BD0FB6F894FA9AF99A0FBEF7
:080A500001960895F894FFCF10
:00000001FF
