:100000000C9446000C9458000C9458000C94580022
:100010000C9458000C9458000C9458000C94580000
:100020000C9458000C9458000C9458000C945800F0
:100030000C9458000C9458000C9458000C945800E0
:100040000C9458000C9458000C947B000C945800AD
:100050000C9458000C9458000C9458000C945800C0
:100060000C9458000C9458000C9458000C945800B0
:100070000C9458000C9458000C9458000C945800A0
:100080000C9458000C9458000C94580011241FBE76
:10009000CFEFD0E4DEBFCDBF21E0A0E0B1E001C0F2
:1000A0001D92A130B207E1F70E9479060C943D073A
:1000B0000C94000085E085BD10920001EEE6F0E0B2
:1000C00080818160808308958091000108959091DE
:1000D0000001981B892F08958111FECF089586B5E0
:1000E000089596B5981B892F089526B596B5921B4D
:1000F0009817E0F308958F938FB78F938091000145
:100100008F5F809300018F918FBF8F9118958EBD67
:100110000DB407FEFDCF8EB50895BF92CF92DF924A
:10012000EF92FF920F931F93CF93DF9300D000D0F5
:10013000CDB7DEB794B1906B94B92C982F9882FB11
:10014000BB24B0F883708065E82E80E2F82E8E0123
:100150000B5F1F4F9CEAC92E93E5D92E87E20E94C0
:1001600075002C9A87E20E9475002C9883EC0E94FF
:100170007500BDBCECBCDA82C9821C821B82FE0108
:1001800031968CEA8EBD0DB407FEFDCF8EB58193FE
:10019000E017F10711F08081F5CF8B81833599F05D
:1001A0001CBCFA94F110DACF8F2D0F900F900F90A6
:1001B0000F90DF91CF911F910F91FF90EF90DF9003
:1001C000CF90BF900895FF24F394EECF84B18F7445
:1001D00084B985B18F7485B91CBC81E0089566230C
:1001E00099F0FC019C012F5F3F4F6150260F311D9C
:1001F00081918EBD0DB407FEFDCF8EB5DF01119745
:100200008C93E217F307A1F708952F923F924F9234
:100210005F926F927F928F929F92AF92BF92CF9296
:10022000DF92EF92FF920F931F93CF93DF93CDB79F
:10023000DEB769970FB6F894DEBF0FBECDBF6A8BED
:100240007B8B8C8B9D8B822F242F952F2701380140
:10025000411451046104710409F4ABC0F12CE12C88
:10026000CE8ADF8AE88EF98E282E220C220C220CF0
:10027000882E932EA22EB92EFF24FA940A891B8968
:100280002C893D89081919092A093B090A8B1B8BFE
:100290002C8B3D8B8E010B5F1F4F4CE4342E2D8237
:1002A0002F2C4A895B896C897D89480D591D6A1DEF
:1002B0007B1DD501C40131E1B695A795979587952A
:1002C0003A95D1F7C22CD12CF12CE12C8C159D053F
:1002D000AE05BF05A1F0282E2DE429831A828B8359
:1002E0001C82FE0131968DE48EBD0DB407FEFDCF5C
:1002F0008EB581930E171F0711F08081F5CF8D8188
:100300008870806489837501640199E0F694E794AC
:10031000D794C7949A95D1F7CE82DF82E886F98682
:10032000CA8275016401F694E794D794C794CA868B
:10033000DB86EC86FD86CB826BBFFA0147914C834E
:100340009E012F5F3F4F7901F9018EBD0DB407FE6D
:10035000FDCF8EB581930E171F0711F08081F5CF69
:100360003FEF831A930AA30AB30AC501B4012E8989
:100370003F89488D598D0E94E9066E877F87888B5B
:10038000998B672B682B692B69F181E04816510422
:100390006104710439F1F1E04F1A510861087108E4
:1003A0002D81285F2D83411451046104710409F0EB
:1003B00078CF69960FB6F894DEBF0FBECDBFDF9140
:1003C000CF911F910F91FF90EF90DF90CF90BF9052
:1003D000AF909F908F907F906F905F904F903F90E5
:1003E0002F90089539829E819A83AA85AB831C82BF
:1003F0008CE48EBD0DB407FEFDCF8EB5F701819361
:100400007F010E171F0711F08081F3CF87E20E9452
:100410007500C1CF3F924F925F926F927F928F9201
:100420009F92AF92BF92CF92DF92EF92FF920F9383
:100430001F93CF93DF93CDB7DEB728970FB6F8940D
:10044000DEBF0FBECDBF2B013C01942F852FA9012C
:10045000692F782FCE2CDF2C7801C114D104E10450
:10046000F10409F47FC0A22FAA0FAA0FAA0F8901D5
:100470009B010C0D1D1D2E1D3F1D0D831E832F8303
:100480003887BFEF441A550A660A770ACE010596E7
:10049000FDE43F2E93018201040F151F261F371F15
:1004A0006A017B01E1E1F694E794D794C794EA9559
:1004B000D1F78B2E912CB12CA12CC814D904EA04AD
:1004C000FB04B1F0BC2D39821A82CB821C82FE0162
:1004D00031960F2EFDE4FF2EF02DFEBC0DB407FE6D
:1004E000FDCFFEB4F192E817F90711F0F080F5CFD7
:1004F000EA2FE870FE2E6894F5F8F9824A015B0154
:10050000E9E0B694A79497948794EA95D1F78A8204
:100510004A015B01B694A794979487948B821C82BE
:10052000FE013196FEBC0DB407FEFDCFFEB4F19284
:100530008E179F0711F0F080F5CF2BBFF8010791C0
:100540002C81201328C04F5F5F4F6F4F7F4FA85FF4
:100550000D811E812F81388540175107620773076F
:1005600009F098CF81E028960FB6F894DEBF0FBE51
:10057000CDBFDF91CF911F910F91FF90EF90DF9052
:10058000CF90BF90AF909F908F907F906F905F9033
:100590004F903F90089580E0E6CF2F923F924F9288
:1005A0005F926F927F928F929F92AF92BF92CF9203
:1005B000DF92EF92FF920F931F93CF93DF93CDB70C
:1005C000DEB768970FB6F894DEBF0FBECDBF698760
:1005D0007A878B879C87C901DA0147015801160188
:1005E00081149104A104B10409F4B3C029013A01B2
:1005F0002FEF421A520A620A720A4D825E826F829D
:10060000788629853A854B855C85280D391D4A1DDC
:100610005B1D29873A874B875C878E010B5F1F4FD5
:1006200031ECC32E910150E040E02D8B3E8B4F8B7F
:10063000588F292F3A2F4B2F55272D873E874F87CD
:10064000588BD82E9827892798279B838A8389855A
:100650009A85AB85BC8588199909AA09BB09ABBFE6
:10066000FC0187918C8332E02316310408F447C0E3
:10067000C982CE0101967C01FC0181EC8EBD0DB4D6
:1006800007FEFDCF8EB58193E017F10711F0808151
:10069000F5CF6D817E818F8198852D893E894F8927
:1006A000588D0E94E906698B7A8B8B8B9C8B672B0C
:1006B000682B692BC1F191E089169104A104B10462
:1006C00091F1F1E08F1A9108A108B108D301C2019C
:1006D0002D813E814F8158852F5F3F4F4F4F5F4F98
:1006E0002D833E834F83588781149104A104B10464
:1006F00081F13FEF431A530A630A730A9ACF40EC21
:100700004983FE01319680EC8EBD0DB407FEFDCF0E
:100710008EB58193E017F10711F08081F5CF8EE45B
:100720000E947500CECFA2ECA983BD85BA838D2D22
:100730008C7F8B831C8282EC8EBD0DB407FEFDCFB7
:100740008EB5F70181937F01E017F10741F38081B6
:10075000F3CF68960FB6F894DEBF0FBECDBFDF9122
:10076000CF911F910F91FF90EF90DF90CF90BF90AE
:10077000AF909F908F907F906F905F904F903F9041
:100780002F9008954F925F926F927F928F929F92D7
:10079000AF92BF92CF92DF92EF92FF920F931F938F
:1007A000CF93DF9300D000D0CDB7DEB74B015C0113
:1007B000942F852FA901692F782F27013801411423
:1007C000510461047104A9F1440E551E661E771E82
:1007D000841A950AA60AB70A9E012B5F3F4F90EA3A
:1007E00075016401C40ED51EE61EF71E9983F42F11
:1007F000E52FFB83EA831C82FE01319680EA8EBDE1
:100800000DB407FEFDCF8EB58193E217F30711F00B
:100810008081F5CFEBBEF601C7908C818C111FC093
:100820004F5F5F4F6F4F7F4F441555056605770546
:10083000B9F681E00F900F900F900F90DF91CF915C
:100840001F910F91FF90EF90DF90CF90BF90AF90EE
:100850009F908F907F906F905F904F90089580E071
:10086000E9CFAF92BF92CF92DF92EF92FF920F93B8
:100870001F93CF93DF93D0E0C0E0CC24CA94DC2C4C
:10088000CE010E9414078C017E01CE0102962496AF
:100890000E941407809590958017910781F088E059
:1008A000E816F10469F7C601DF91CF911F910F910E
:1008B000FF90EF90DF90CF90BF90AF9008958C1590
:1008C0009D0568F76C01EBCFCF92DF92EF92FF921C
:1008D0000F931F93CF93DF937C016C01C094D0944E
:1008E00010E000E0E801B701C8010E941A07B60154
:1008F000C80102960C5F1F4F0E941A07289791F7B4
:10090000DF91CF911F910F91FF90EF90DF90CF90EB
:1009100008958F929F92AF92BF92CF92DF92EF9203
:10092000FF920F931F93CF93DF934C01EE24EA9431
:10093000FE2CD0E0C0E0CE010E9414078C016E01B5
:10094000CE01029624960E94140780959095081770
:100950001907C9F028E0C216D10469F78FEFE8162D
:10096000F80609F47401E114F10491F4DF91CF91D8
:100970001F910F91FF90EF90DF90CF90BF90AF90BD
:100980009F908F9008950E151F0520F77801E2CFF4
:10099000870101501109F194E194F108D12CC12C87
:1009A000E601B801C6010E941A07B701C601029606
:1009B00024E0C20ED11C0E941A07289789F7D6CFCF
:1009C0002F923F924F925F926F927F928F929F925F
:1009D000AF92BF92CF92DF92EF92FF920F931F934D
:1009E000CF93DF93CDB7DEB72C970FB6F894DEBF69
:1009F0000FBECDBF00E010E120E0480159011E010B
:100A000015E0210E311C750164012FEFC21AD20AC4
:100A1000E20AF20AABBEF4019791993070F599237E
:100A200081F0EEEFE90FE73060F132E0830E911CC8
:100A3000A11CB11CEBBEF60187910E948D008111B3
:100A4000E2CF0E94E60080E02C960FB6F894DEBF5D
:100A50000FBECDBFDF91CF911F910F91FF90EF900F
:100A6000DF90CF90BF90AF909F908F907F906F90CE
:100A70005F904F903F902F90089581E09F3F21F32A
:100A8000E0CFF0E0E15CF84F0C940B07EBBEF60111
:100A90004790512C712C612C742C662455244424CD
:100AA000B501A4014E5F5F4F6F4F7F4F6BBFFA01DF
:100AB0008791B501A4014D5F5F4F6F4F7F4F6BBFB3
:100AC000FA01479175016401E4E0CE0ED11CE11CEE
:100AD000F11CEBBEF601C790682A4C28542AB501D8
:100AE000A4014B5F5F4F6F4F7F4F6BBFFA01479180
:100AF00050E070E060E0742F6627552744277501A9
:100B00006401F6E0CF0ED11CE11CF11CEBBEF60136
:100B100027917501640107E0C00ED11CE11CF11C96
:100B2000EBBEF60187917501640118E0C10ED11C7E
:100B3000E11CF11CEBBEF601C790622B4C298A0127
:100B40009B01182B0D831E832F833887B501A401C9
:100B5000475F5F4F6F4F7F4F6BBFFA014791C42EC6
:100B6000D12CDC2CCC24A5019401255F3F4F4F4FA5
:100B70005F4F29873A874B875C873AE0830E911C49
:100B8000A11CB11CABBEF4014791C42AED80FE80CC
:100B90000F811885A3019201953009F497C06985EA
:100BA0007A858B859C850E94CD02ED80FE800F8129
:100BB0001885A301920169857A858B859C850E94A1
:100BC000C2038D809E80AF80B88409851A852B85ED
:100BD0003C85800E911EA21EB31E31CF9E012F5F59
:100BE0003F4FD701C601ABBFFC018791EFEFCE1A93
:100BF000DE0AEE0AFE0AD9018D939D01A215B30506
:100C000081F7D501C4010596A11DB11DABBFFC0143
:100C10001791B6E08B0E911CA11CB11C64E0CE01B3
:100C200001960E94EF008C81811709F4ECCE09CF68
:100C30009E012F5F3F4FD701C601ABBFFC018791DB
:100C40005FEFC51AD50AE50AF50AD9018D939D0112
:100C50002A163B0681F7B5E08B0E911CA11CB11C36
:100C600064E0CE0101960E94EF00CDCE0E94E60026
:100C700046015701E4CE42E0840E911CA11CB11C38
:100C8000EBBEF601C7901FEF1C0DCC2009F4BBCEC4
:100C90008EE40E9475001150D8F7B5CEEBBEF60178
:100CA000879190E0982F8827B501A4014E5F5F4F90
:100CB0006F4F7F4F6BBFFA01479113E0810E911C7C
:100CC000A11CB11C842B0E9489049DCE69857A8564
:100CD0008B859C850E940501ED80FE800F81188523
:100CE000A301920169857A858B859C850E940A0201
:100CF00068CF88E087B980E18AB98FEE8BB90E940E
:100D00005A0078940E946400C82F0E9431046C013C
:100D10000E946400182F5C98439A01E0BB24B394AE
:100D2000D0E0EE24E394002309F14B9937C00E94F0
:100D30006400182F8C2F0E946700FD2EFE2489303E
:100D400090F30E946400C82F8BB18F7EC114D10430
:100D5000E1F4D1111CC08BB9B1101DC088B1877FDF
:100D6000D111886088B9DF2D0111DFCF99B1892FAA
:100D70008870F82E93FDDECFC114D104B9F40E941F
:100D80006400182FBF2C01E0D5CFB110E4CF8061F3
:100D90008BB9BB2019F3439ADF2DC5CF812F0E9459
:100DA000670001E0803130F200E0C4CF5C984398E6
:100DB0000E94E004F82E0E9431046C018BB18F7EFA
:100DC000F11001C080618BB9439A0E946400C82F62
:100DD000D6CFA1E21A2EAA1BBB1BFD010DC0AA1F74
:100DE000BB1FEE1FFF1FA217B307E407F50720F094
:100DF000A21BB30BE40BF50B661F771F881F991F0F
:100E00001A9469F760957095809590959B01AC0157
:100E1000BD01CF010895EE0FFF1F0024001C0BBE83
:100E20000790F691E02D0994A8E1B0E042E050E08F
:100E30000C9421070E942F07272F0C943007DC0108
:100E4000CB01FC01F999FECF06C0F2BDE1BDF89AD5
:100E5000319600B40D9241505040B8F70895262FB6
:100E6000F999FECF1FBA92BD81BD20BD0FB6F8948F
:100E7000FA9AF99A0FBE01960895F894FFCF3606B4
:0C0E80001806EE0546053B064E0646052A
:00000001FF
